:100000006F00B069000000004209000046090000CE
:1000100000000000000000000000000000000000E0
:1000200000000000000000000000000000000000D0
:1000300080060000000000006A0E000000000000C2
:100040006C0E00006E0E0000700E0000720E0000BC
:1000500022070000760E0000780E00007A0E0000E5
:100060007C0E00007E0E0000800E0000820E00005C
:10007000840E0000860E0000880E00008A0E00002C
:100080008C0E00008E0E0000900E00005E0400003A
:10009000940E0000F60400000405000000000000BB
:1000A000511126C022C206C4828282441244A24058
:1000B00031018280634E050263C305042E86AA8542
:1000C0007D5515C285466378B6006356C0000606A6
:1000D0008606E36CB6FE014563E4C500918D558D3F
:1000E00085820582F5FA82808682C93F2E858282CA
:1000F0003305A04063D70500B305B040C1B7B305D1
:10010000B0408682653F3305A0408282868263C705
:100110000500634905005D372E858282B305B04036
:10012000E35B05FE3305A040513F3305B0408282BA
:100130000000EFF2FFF685450945EF10A016B5B7B0
:10014000EFF21FF685450945EF10E0241305400640
:10015000EF10A02E81450945EF10E023130540065E
:10016000EF10A02D99B70145828082807D55828055
:10017000EFF21FF31C417111CC81DC439305310078
:1001800005468297110115B7EFF29FF171119305A2
:1001900031004105EF10800C01E58881110131B774
:1001A0007D55EDBFEFF2DFEF2E85B285EF00107BBE
:1001B000EDBD13F7F50FC54763EDE700896793873A
:1001C00047960A073E9793F705700C43CD8F5CD591
:1001D000828093F6050C1306000CFD57E399C6FECA
:1001E0009306700CE3E5E6FE93F7F5030967130742
:1001F00047948A07BA979C430967130747968A076B
:10020000BA9793F505709C43D1B713F7F50FC5471F
:1002100063EDE7008967938747960A073E9793F750
:1002200005700C43CD8F1CD5828093F6050C130608
:10023000000CFD57E399C6FE9306700CE3E5E6FE5D
:1002400093F7F5030967130747948A07BA979C4306
:100250000967130747968A07BA9793F505709C4379
:10026000D1B7EFF2FFE39307803E1CC58967938700
:10027000479B1CC10CC9232205009305600C2A84EE
:100280000D3F9305500C2285493758541C54631474
:10029000F700FD575CD4FD571CD85CD839B5EFF298
:1002A0003FE0B74501409385058013854183553F65
:1002B000EDBBEFF2FFDE1C452A8481CB0D46AA85FB
:1002C000829723240400232604002285F9BB1C45C1
:1002D00099C7EFF2FFDCAA850D468297F9B38280B9
:1002E000B7370140938707C06308F500B7070040A0
:1002F0006316F500054582800145828041657D15C4
:100300008280EFF2FFD92A84084DD93FAA841305D1
:100310008401EF00B0448A04138501812695232AC5
:100320000400930444082320050013044403638657
:100330008400C1142685613FDDBF85BBEFF25FD627
:1003400071112A84C1642E852EC0FD14513F82454F
:100350006313950001A01C4C91C301A093172500C5
:10036000138501813E95930744011CC19307000842
:100370005CD4930700041CD80CCC1305840140C83E
:10038000232E04002320040223120402EF00B039BC
:1003900013054403393F13054404213F1305440565
:1003A000093F130544063137130544071937084C34
:1003B0002320040023220400232404002326040015
:1003C00023280400232E040004D08545EF00206A72
:1003D000084C9305C401EF00A0641101F9B1EFF2DC
:1003E0003FCC232E050223260504232E05042326B5
:1003F0000506232E0506232C05008937B7E700E004
:10040000214723A2E7101307000223A2E7101307D6
:10041000000423A2E71051B9EFF29FC8184519E371
:10042000EF1080065C45829749B111E101A0EFF21F
:100430003FC72A8408418545812D0DC11C40DE2718
:10044000858B89CF2285EF00D02D08415C5D81C767
:1004500013054503D137084085459925B9B103A552
:10046000018119C11105D1377300203011E101A0BC
:100470001C41DA27098B11EBDA27118B19E7DA27F0
:10048000218B01E7DA27418B35C7EFF27FC12A8440
:1004900089453E85D52B1C400DC189453E850925E2
:1004A00085442285EF00F027084192049384440399
:1004B00026951C4591C38D37CDBE3E859145E923D8
:1004C0001C4011C591453E85E12B8944D9BF3E852D
:1004D000A1455D2B1C4011C5A1453E85D1238D440E
:1004E000C9B7C1453E854D234DDD0840C145914406
:1004F000452B45BF828003A5018119C11105BD3778
:1005000073002030711122C013840181484011C54D
:100510001105213F48401105913F0244110173002C
:100520002030EFF2FFB72A84EF00707048C41C40FF
:100530002285DC4B8297635A0500EF00506F5C44C4
:100540001D8D1C44E365F5FE7D5585B6EFF25FB564
:100550006111AA8401442EC232C0630DC4002685F5
:10056000C9376349050092450246B387850088A3D1
:100570000504D5B7228521010DBEEFF27FB25111DE
:10058000014495C6B684AA8701443E8532C42EC272
:100590003EC0413F634D05009245630AB5002246C7
:1005A00082473307860008A30504E39084FE228572
:1005B0003101E5BCEFF2DFAE0D2AC5BCEFF25FAE54
:1005C00085476300F50211C589476302F5020145BD
:1005D000E9BC1145854539213715014013050580D2
:1005E000C5BF41458545FD2E37150140D5B71305DB
:1005F00000028545C52E3715014013050540C9BFCA
:10060000EFF21FAA89665111938546852AC0EF0033
:100610001003F9311317250093840181BA948C409B
:1006200013840181024685E5896693854685328576
:100630003AC4EF00D0002AC213054008EF00F06171
:1006400092452AC0693B9C408246224794C3B30727
:10065000E4009C43804301C822856531930540082E
:100660002285EF00D061310189B403A5818183A582
:10067000C18182808280EFF2BFA2C53F6FF0FFA2EE
:100680009387818103A3070083A347001307130007
:100690003335670098C3B3067500D4C3E13FB7F79D
:1006A00000E023A2070073002030EFF27F9F37F4B1
:1006B00000E0232204002320040023240400B707C1
:1006C000002003A547109305803EEFF03F9F7D1566
:1006D00008C8BD471CC07D57B7E700E02386E74048
:1006E000056723A0E7106FF05F9CEFF27F9B753FDB
:1006F0006FF0BF9B814705476307E50085070581CC
:1007000093F7F70FD5BF370700208E071307C700F1
:10071000BA97DC4391C7EFF2BF9882976FF0FF98CA
:100720008280611122C226C00544A1442285A920ED
:1007300019C522858D20131504014181653FFD14E3
:100740000604EDF41244824421017300203037077F
:100750000020130707101C43938681913E9563691F
:10076000D500938601D463E5A60008C33E85828048
:10077000FD57EDBF82808280B70701401387074095
:1007800083A70740584B698F09C77D8D3335A0007B
:10079000828001458280B707014023AAA74082805A
:1007A0009C45611122C226C013F7070113F3F7001D
:1007B00001C7D8413363E30092211377F60F29C7AD
:1007C00083230500014713048002930480048546B7
:1007D000B395E600B376B6006392D5029312270074
:1007E000BD46B396560093C6F6FFB3F37600B31238
:1007F0005300B3E37200639787064CC90507A1460F
:10080000E317D7FC232075001307F00F6378C704A4
:1008100083234500A1461304800293048004054706
:10082000B312D700337756006394E2021397260081
:100830000117BD45B395E50093C5F5FFB3F375000A
:100840003317E300B363770063928702232A5500CE
:1008500085064147E395E6FC232275001244824455
:1008600021018280E39C97F80CC949BFE39297FE6F
:1008700023285500F1BF0CC982804CC98280370300
:100880000140032743009317350063D00702B707E1
:10089000C0FFF517F98F37070007D98FD9CD370774
:1008A00000F07D17798DC98F49A8635D0500B707F2
:1008B000E0FFED17F98F37070007D98FBDCD06058B
:1008C0000581D5B7B7073000931605013376F500DB
:1008D000C1826313F602370600F97D16B377C700AD
:1008E00003274300798E2322C300A1C95581131722
:1008F00045003395E60045BF9317B50063D4070262
:100900009357050113F6F7008D47B397C70093C7B8
:10091000F7FFF98F37070007D98F85C113575501A6
:100920001207C1BF558112053395A6009347F5FF05
:10093000F98F37070007D98FBDF5370701405CC332
:1009400082807300203001A0EFF28FF5371702404C
:100950005C4391462A84B18B6385D700A146638DA1
:10096000D706B7376E01938707601CC0B7160240E1
:10097000DC42918313F7F700B7070020938707063F
:10098000BA978C23DC42184093F5F50F93F70708CC
:100990003355B70081E73A85EFF04FF248C008C4FD
:1009A00048C4B7170240DC43AD83FD8B13D7370033
:1009B0008A07F18BD98F93F637010D476373D70000
:1009C000D117370700201307C704BA978C23EFF01D
:1009D000EFEE08C86FF06FED5C43B777DC029387EA
:1009E00007C061B799C5371702401C4F5D8D08CF0E
:1009F0008280B7170240984F1345F5FF798D88CF55
:100A0000828099C5371702405C4F5D8D48CF828048
:100A1000B7170240D84F1345F5FF798DC8CF8280B4
:100A20001E2137370140130707C0C207C183630681
:100A3000E500370700406316E500BA2193F7F7F8A1
:100A4000D98FFA2193F7F7CFC207C183D98F1EA19F
:100A5000DE215EB59E211EB5B7370140938707C0E2
:100A60006314F5009C251EB985475EA982801E216E
:100A700089C593E707081EA18280C207C18393F747
:100A8000F7F7C207C183C5BF1E294A25ED8F42056E
:100A9000418189C76D8D3335A000828001458280F8
:100AA00093C5F5FFC205C1810EA98280EFF24FDF29
:100AB0001629F577FD17F58FF621DA252111D58F47
:100AC0001EA95625FD779387379FF58FD6212A8457
:100AD0002EC0D58F9625D58FB625D58F5EA55E29DC
:100AE000C207C18393F7F7CF5D8F5AA94800A93D8C
:100AF000B74701409387078082456312F406C247D7
:100B00005A24139517003E9542070E0541873E95DE
:100B10008C41635807048605EFF04FDA93054006D1
:100B20002AC0EFF0AFD982479314450093054006E1
:100B30003E85EFF06FDB5E24C207C18763D50702F5
:100B40000E059305400613052503EFF02FD71D89E9
:100B5000C98CC204C18006A461016FF00FD5B247F1
:100B600045B78A0555BF12059305400613052503B1
:100B7000EFF0CFD43D89E9BF91C55E250967D98FD4
:100B80005EA582805A25F977FD17F98FD5BF93F5B9
:100B9000F51F4EA182804A211375F51F82805E29C0
:100BA00089C593E787005EA98280C207C183DD9B68
:100BB000C207C183CDBF0A216D8D3335A00082806D
:100BC000B71702409843B706FFFC1367170098C396
:100BD000D843758FD8C39843B706F7FEFD16758FB7
:100BE00098C39843B706FCFFFD16758F98C3D4438E
:100BF00041777D17F98ED4C3B7069F0094C7B726F7
:100C000002409042719A90C290421366160090C2C0
:100C1000D443D4C3D443758FD8C3D843B706000197
:100C2000D8C39843558F98C3984393166700E3DD64
:100C300006FED843B7160240719BD8C3D84313674A
:100C40002700D8C32147DC42B18BE39EE7FE8280B8
:100C5000FD577D576317F500014582806387A70024
:100C6000B1059C41E39CE7FEC5BF05458280EFF2DC
:100C70002FC3311102C402C602C8FD576313F50029
:100C800001A093D7854093F4F7079377F500139766
:100C900027008967938747A4BA979C4311813D89B0
:100CA0002E843EC0EFF09F912AC29DC08545054528
:100CB000153B9387F4FF6947636CF70009678A0760
:100CC0001307879DBA979C43828785450545453E16
:100CD00093572440137734008D8B7DC73AC609475C
:100CE0006380E70E0D47638FE70C05476388E70CC9
:100CF000C1473EC8EDA08145D1BF854537050010ED
:100D00000905F1B7854537054010DDBF8145E5BFD1
:100D100085453705008011055DBF85453705208075
:100D20007DB7854537052080FDB78145E5BF37058F
:100D3000160085451305050459BF8545370516007E
:100D40001305050869B78545370516001305050C19
:100D5000BDBF8145D5BF3705180085451305051072
:100D6000BDB7370518008545130505208DB78545A6
:100D7000370518001305053099BF8145D5BF854556
:100D80002165B1B78145EDBF8545370520008DBF91
:100D90008145E5BF854537052000B5BF8145E5BFE5
:100DA00085453705200069BF8145E5BF8545370585
:100DB00030001305054021BF8145D5BFD14715BF80
:100DC000E14705BFF14735B705476383E70299C798
:100DD00089466381D7029307800221BF02C88247F8
:100DE00012452C007C84EFF0BF9B51016FF0EFABFC
:100DF000914701B711840D8893078004E31DE4FC3B
:100E0000CDBDFD577D57631CF50082806398A70018
:100E1000EFF20FA98C45A13D6FF02FA9B1059C41C0
:100E2000E396E7FE01A07D579C416394E7000145EE
:100E300082806394A700C8418280B105F5B7FD5751
:100E40006307F500EFF2CFA5F93F6FF00FA601455C
:100E500082806305B50019C181E5AA852E8582804F
:100E60008145EDBF01A001A001A001A001A001A04A
:100E700001A001A001A001A001A001A001A001A06A
:100E800001A001A001A001A001A001A001A001A05A
:100E900001A001A001A001A001A097010020938161
:100EA00061A6138101F0171500001305E5C397F53E
:100EB000FF1F938525151386018163FAC5008322E0
:100EC000050023A0550011059105E3EAC5FE138531
:100ED0000181938581916377B50023200500110579
:100EE000E36DB5FE93020008739002308D4273905B
:100EF000428097F2FFFF9382E21093E232007390F8
:100F00005230170500001305455A492BD12BEFF03D
:100F10003FCB970200009382023873901234730023
:100F2000203071158280EFF2AF971841B73701403A
:100F3000938707C02A846318F70005658545130564
:100F40000580EFF03FAA1840B70700406316F7008E
:100F500085450545EFF0FFAA6FF02F95EFF24F940E
:100F60001841B7370140938707C02A846318F700F8
:100F70000565814513050580EFF0DFA61840B7072A
:100F800000406316F70081450545EFF09FA76FF01D
:100F9000CF91EFF2EF901301C1FDAA84084D32C644
:100FA00009662EC49305C6923ACA36C8493D2AD06E
:100FB000C84C89669385469159352A84885089653D
:100FC0009385C58FAD3D2AC0C85089659385458EF0
:100FD000BD350257096689662AC232CC36CE630413
:100FE000070ED04CFD566304D600630E040C9050DF
:100FF000FD566305D60082476387070CD050FD5627
:101000006305D60092476380070C3A85A285913527
:10101000824588C03D3D924588C0253D88C045C574
:101020003747014013070780631BE50085451165BD
:10103000EFF05F9B130700022386040298D4E24777
:10104000884C9385C792753B11C4F247C84C938571
:101050004791453B8247814681CB8850896593857E
:10106000C58F453393060010924791CBC8508965D0
:1010700093E606209385458E36C061338246A247AB
:1010800003C7C40288409CC4B24713162700DEA4DD
:10109000D247138701823297FEA4C24713864400C9
:1010A00010C33147C8C09EA8BAA8D6A801E4854598
:1010B000EFF0FFAEC84093858400EFF03F9FC8403B
:1010C0008545EFF07FAB130141026FE01FFEEFE2B9
:1010D0003FFD896783A787950967130747968A07A6
:1010E000BA97804389659385C5922285893B19CD3E
:1010F00037050020F1659307050701478146014642
:10110000938505201305050780CF61356FE0FFF952
:10111000EFE21FF98347C5029305000213972700EA
:1011200093870182BA979C438843EFF0DFA8133579
:1011300015006FE09FF7EFE2BFF68347C502930506
:1011400000041397270093870182BA979C43884332
:10115000EFF07FA6133515006FE03FF5EFE25FF487
:10116000411137040020AA842EC2EFF00FD093075C
:10117000040783C7C7022AC41304040785E703478B
:10118000C402938701820A07BA979C43F1173EC0B5
:10119000938701823EC68247C9EB02C212454101D4
:1011A0006FE0BFF0896783A78795096713074796A4
:1011B0008A07BA979C4389669385C6923E853EC04E
:1011C000BD39896679D923060402138701821C433D
:1011D00091EF8347C402850793F7F70F2306F402C4
:1011E000FDD7F5358347C402D9DB45BF024593855A
:1011F000C692B1310346C4021387018293172600B9
:10120000BA979C4389669C43E395A7FC2DDAD1BF2E
:10121000EFF0AFC5A247B307F5403335F500E39EC5
:10122000A5F61307703EE36AF7F6024529376DF11C
:101230009247A6973EC4A247E382F4F60245E53DF5
:1012400075FD8347C402324785048A07BA979C43D9
:1012500083C5F4FF8843EFF09F93F1BF11E57D55FF
:1012600082807D556FE07FE4EFE29FE3AA842E84C5
:10127000453565F983C7C402139727009387018218
:10128000BA979C438843EFF01F9108A00145D9BF4E
:101290008280EFE2FFE0EFF0EFB1EFE09FE9EFE0F7
:1012A0003FEAF5BF9377F50F45476366F70809678F
:1012B0008A07130747963E97184393770570D98F8F
:1012C0007D576389E70CEFE2BFDD13D42700138756
:1012D000C1871374C4032297184393F4F700511184
:1012E000335797009386C1872EC0058B36C205CB36
:1012F00089653E85938545853EC4EFF07F95A2477D
:1013000009C53E85EFF0CFAFA24712473A94054793
:10131000B3149700184093C4F4FFF98C04C08246BC
:1013200015476368D7060967130747A693952600F4
:10133000BA95984102871377050C9306000C631B3E
:10134000D7041307700C6367F7049377F5030967F5
:10135000130747948A07BA979C4309671307479670
:101360008A07BA979C4313750570C98F91BF914541
:101370003E85EFF0DF8F31016FE03FD38D45CDBF6C
:10138000E145FDB793058002E5B78145D5B79D4599
:10139000C5B701A08280EFE2BFD01377F50FC54734
:1013A000AE8663E6E7048967938747960A073E9708
:1013B000184313750570B367E50013D747003D8BDD
:1013C000094601456369E600370600200A0713064F
:1013D0000600329708438545BD8BB397F50093957A
:1013E0000701C181B1C2EFF00FC96FE01FCC1376C6
:1013F000050C9305000CFD57E311B6FC1306700CA9
:10140000E36DE6FA9377F5030967130747948A07B4
:10141000BA979C430967130747968A07BA979C4374
:1014200013750570C98F51BFEFF02FC57DBFEFE277
:101430003FC7EFF04FA46FE05FC719CDEFE25FC683
:101440002A84EFF04FA3AA84A135EFF0CFA2058D37
:10145000E36C85FE6FE07FC58280511122C206C415
:101460002A8411E105442285FD2011E5112811E1AE
:1014700005200295CDBFA24012443101828001A80F
:101480009387418288438280511106C41120C9A8E4
:101490005111194506C4E12C0545652EAA858146E2
:1014A0000146014501A65111970700009387C763C4
:1014B00022C217040000130424631D8C26C006C436
:1014C0000984BE8419E41244A240824431016FF0C1
:1014D0006FAA7D1493172400A6979C438297DDB7CB
:1014E000511122C2970700009387875F17040000FD
:1014F0001304045F1D8C26C006C4098481446396CE
:101500008402EFF04FA7970700009387675D1704E9
:1015100000001304645D1D8C09848144639284027D
:10152000A2401244824431018280139724003E97E6
:10153000184385040297970700009387675AC1B73D
:10154000139724003E9718438504029797070000DD
:1015500093870759E1B793878180AA85884345A877
:1015600093878180AA85884309A0CDC183A7C5FF41
:10157000511122C206C426C01384C5FF63D30700DD
:101580003E94AA844D2C938781829C4399EB23221D
:10159000040023A481821244A240268582443101A2
:1015A00061AC637EF40014403307D4006396E70017
:1015B0009843DC43369718C05CC0E1BFBA87D84374
:1015C00019C3E37DE4FE94433386D700631F86008E
:1015D0001040B29694C33386D700E31EC7FA104377
:1015E0005843B29694C3D8C37DB76375C400B1475E
:1015F0009CC055B71040B306C4006316D70014430F
:101600005843B29614C058C0C0C371B7828041110C
:1016100026C293843500F19806C622C4A104B147BE
:1016200063F5F404B14463E4B4042AC029241387A5
:10163000818214438247368439E01387C18218437C
:1016400001EB3E8581453EC0692823A6A1828247E1
:101650003E85A6853EC071207D5782476314E5060E
:10166000314798C33E85C92A29A0E3DE04FAB14771
:101670001CC10145B240224492444101828018407D
:10168000058F634E07022D466376E60018C03A9434
:1016900004C031A058406392860223A4E1823E85B3
:1016A000612A1305B400130744006199B307E540AC
:1016B000F1D33E94098F18C075BFD8C2CDB7A286AA
:1016C00040409DBF130435007198E30385FCB305CA
:1016D000A4403E853EC031207D578247E31AE5FA9B
:1016E00041B7511122C22A842E8523AA019006C433
:1016F000EFF0EF85FD576317F500938741919C4309
:1017000091C31CC0A240124431018280FD4763F6A0
:10171000B700D9471CC17D5582807C41411122C44C
:1017200006C62E862A8491C713972500BA97984338
:1017300019EB228532C0B520AA85228522440246B3
:10174000B240410115A8854601456308D700FD5602
:101750006319D700D9471CC00545B2402244410156
:1017600082802E8523A0070002970145FDB793874D
:101770008180AA85884359BF511122C22A842E85AF
:10178000B28523AA019006C47D28FD576317F50092
:10179000938741919C4391C31CC0A24012443101E4
:1017A000828061A8938701839C43AA8399EF138762
:1017B000818823A8E18217F5FFFF1305A584BA8766
:1017C00009C51C4123A8F190BA87D8437D437D55B4
:1017D0006346E304638D030203A3870863000304E5
:1017E000931227009A9223A0C200032503100546F6
:1017F0003316E600518D2320A31023A0D20889467A
:101800006397D30083264310558E2322C31093067B
:1018100017000A07D4C3BA978CC70145828097E79F
:10182000FFFF9387277E99C7170500001305E5C7BB
:101830006FF0DFC68280828082809307800523AAB2
:10184000F1907D5582809307800523AAF1907D5504
:10185000828001A024000000000000400B910000E5
:1018600023000000000000400B11010010000000E8
:10187000000000400B910100270000000000004024
:101880000B11020022000000002C01400B8D000013
:1018900001000000002C01400B0D010013000000AE
:1018A000002C01400B8D010014000000002C0140B1
:1018B0000B0D020020000000002C01400B8D0000E9
:1018C00002000000002C01400B0D0100210000006F
:1018D000002C01400B8D0100FFFFFFFF0000000006
:1018E0000000000023000000003801401800000044
:1018F000FFFFFFFF000000000000000012000000DA
:10190000003801400B000000FFFFFFFF0000000057
:101910000000000026000000003801401800000010
:10192000FFFFFFFF00000000000000002500000096
:10193000003801400B000000FFFFFFFF0000000027
:101940000000000001000000000000000600000090
:101950000C0000000D0000000F000000100000004F
:101960000E00000001000000020000001000000056
:10197000110000001200000013000000140000001D
:1019800015000000160000001700000020000000F5
:1019900021000000220000002300000024000000BD
:1019A00025000000260000002700000000000000C5
:1019B0000000000070010000A401000066010000AA
:1019C0006A0100006C010000880100006C01000049
:1019D0004C0500007A050000CA0C0000F60C00005F
:1019E000FA0C0000040D00000C0D0000100D0000AA
:1019F0001A0D0000220D00002A0D00002E0D00001F
:101A00003A0D0000460D0000520D0000560D00007A
:101A1000620D00006E0D00007A0D00007E0D0000CA
:101A2000840D0000880D0000900D0000940D000052
:101A30009C0D0000A00D0000A80D0000AC0D0000E2
:101A4000B80D0000010000000200000004000000CA
:101A5000080000001000000020000000400000000E
:101A6000800000006E1300007C1300008013000053
:101A7000841300008A1300008E1300000000000091
:101A80000000000000000000000000000000000056
:101A90000000000000000000000000000000000046
:101AA0000000000000000000000000000000000036
:101AB0000000000000000000000000000000000026
:101AC0000000000000000000000000000000000016
:0C1AD0000000000000000000000000000A
:081ADC001E1800009E0200002C
:101AE40000080140001001400014014014000000EF
:101AF40000000000140000000000000014000000BA
:101B040000000000140000000000000014000000A9
:101B14000000000014000000000000001400000099
:101B24000000000014000000000000000204060889
:101B340004080C1008101820102030402040608049
:101B44000102030405060708010203040506070849
:101B54000000000000000000000000000000000081
:101B64000000000000000000FFFFFFFFFFFFFFFF79
:101B7400FFFFFFFFFFFFFFFF000000000100000068
:101B8400000000009C1A0000BC1A00007C1A00002F
:101B94000000000000000000000000000000000041
:101BA4000000000000000000000000000000000031
:101BB4000000000000000000000000000000000021
:101BC4000000000000000000000000000000000011
:101BD4000000000000000000000000000000000001
:101BE40018020020006CDC02A000002000000000AD
:00000001FF
